:10000000FE2F00308A000408840A82070034773407
:10001000773477342E3465346C3465346334743417
:1000200072346F3453346F346D3465342E3463342A
:100030006F346D3400344C344334443420344C3405
:100040006934623472346134723479342034663401
:100050006F347234003444346534763465346C342F
:100060006F3470346534643420344234793400346D
:1000700065346C3465346334743472346F3453349F
:100080006F346D34653400344D3450344C34413465
:0C009000423420345834433438340034F7
:100CD60000307A2601307A26080001307A2608305C
:100CE6007A26080001307A260C307A260800C300DE
:100CF6008312031306114308A626831203138615CF
:100D06000B30C2006230C100C10B872EC20B872E8A
:100D160000008312031386110800C700C501C6012F
:100D26004508470784000120003A031908004508D2
:100D3600470784000120F1260130C5070318C60ABB
:100D46000030C607932EC000401CAD2E831203133D
:100D56000616B02E831203130612C01CB42E861676
:100D6600B52E8612401DB92E0617BA2E0613C01DC3
:100D7600BE2E86170800861308000030A6263430DB
:100D8600C500F130C400C40BC62EC50BC62ECB2E33
:100D960003307A260D30C500FB30C400C40BD12EBB
:100DA600C50BD12ED62E03307A261D30C5009130C4
:100DB600C400C40BDC2EC50BDC2E03307A260230B1
:100DC6007A2602307A2608307A2600307A260C30C7
:100DD6007A2600307A2606307A260800C4004408AF
:100DE6000F39C1004108C2004408F039C10041086A
:100DF600C3008312031306154308C1000430031011
:100E0600C10CFF3E031D022F4108A62683120313C1
:100E160086151A30C100C10B0E2F00008312031372
:100E260086114208A6268312031386151A30C100BE
:100E3600C10B1B2F00008312031386110800C70085
:100E46004703031D412F44087F3EC5004508CA00DD
:100E56004A08C50004300310C50CFF3E031D2E2FA3
:100E66004508C6004608C8004A080F39C5004508A7
:100E7600C90048087A2649087A260800023047063B
:100E8600031D08004408BF3EC5004508CA004A08BD
:100E9600C50004300310C50CFF3E031D4D2F450849
:100EA600C6004608C8004A080F39C5004508C900EB
:100EB60048087A2649087A2608008316031386010D
:100EC600C0266B26C401C40A01302227153090269D
:100ED600C401C40A023022273E3090261530CD00C8
:100EE6004B30CC00D130CB00CB0B772FCC0B772FF0
:100EF600CD0B772F00006B26C401C40A01302227D0
:100F060025309026C401C40A0230222732309026AA
:100F16001530CD004B30CC00D130CB00CB0B912F10
:100F2600CC0B912FCD0B912F00006B26C401C40A68
:100F36000130222701309026CE01CF0100304F022A
:100F46000F3003194E020318C32F0430CD000C30A6
:100F5600CC003530CB00CB0BAE2FCC0BAE2FCD0B50
:100F6600AE2FB52F70260130CE070318CF0A0030FA
:100F7600CF0700304F020F3003194E02031CA82F73
:100F8600CE01CF0100304F020F3003194E02031875
:100F9600E72F0430CD000C30CC003530CB00CB0B26
:100FA600D22FCC0BD22FCD0BD22FD92F75260130B5
:100FB600CE070318CF0A0030CF0700304F020F309C
:100FC60003194E02031CCC2F6B26C401C40A02303F
:100FD60022276530F1265330F1261530CD004B30EF
:100FE600CC00D130CB00CB0BF62FCC0BF62FCD0B94
:0A0FF600F62F0000642F8301602F26
:02400E00FAFFB7
:00000001FF
